:020000040800F2
:100000000028002025120008A50D0008AB0D0008EF
:10001000B10D0008B70D0008BD0D0008000000007C
:10002000000000000000000000000000C30D0008F8
:10003000CF0D000800000000DB0D0008E70D0008F0
:100040006D1200086D1200086D1200086D12000894
:100050006D1200086D1200086D1200086D12000884
:100060006D1200086D1200086D1200086D12000874
:100070006D1200086D1200086D1200086D12000864
:100080006D1200086D1200086D1200086D12000854
:100090006D1200086D1200086D1200086D12000844
:1000A0006D1200086D1200086D1200086D12000834
:1000B000F50D00086D120008000000006D12000828
:1000C0006D12000800000000000000006D12000822
:1000D000000000006D1200086D1200080000000012
:1000E0006D1200086D1200086D120008000000007B
:1000F0000000000000000000000000000000000000
:0C01000000000000000000005FF808F1A3
:10010C0010B5054C237833B9044B13B10448AFF345
:10011C0000800123237010BD1C0000200000000093
:10012C003C28000808B5034B1BB103490348AFF347
:10013C00008008BD00000000200000203C280008C2
:10014C0080B582B000AF78607B68092B00F2C88163
:10015C0001A252F823F000BF8D010008E301000852
:10016C00390200088F020008E50200083B03000872
:10017C0091030008E70300083D04000893040008FD
:10018C0000224FF40071D54801F056FB00224FF4C9
:10019C008061D24801F050FB00224FF40061CF483F
:1001AC0001F04AFB00224FF48051CC4801F044FB93
:1001BC0000224FF40051C94801F03EFB00224FF4DD
:1001CC008041C64801F038FB01224FF40041C3487E
:1001DC0001F032FB85E101224FF40071BF4801F0C0
:1001EC002BFB00224FF48061BC4801F025FB002260
:1001FC004FF40061B94801F01FFB01224FF480510C
:10020C00B64801F019FB01224FF40051B34801F03C
:10021C0013FB01224FF48041B04801F00DFB012289
:10022C004FF40041AD4801F007FB5AE100224FF4B6
:10023C000071AA4801F000FB00224FF48061A7482E
:10024C0001F0FAFA01224FF40061A44801F0F4FA2B
:10025C0000224FF48051A14801F0EEFA00224FF435
:10026C0000519E4801F0E8FA01224FF480419B486E
:10027C0001F0E2FA00224FF40041984801F0DCFA58
:10028C002FE100224FF40071944801F0D5FA0022BE
:10029C004FF48061914801F0CFFA00224FF40061D5
:1002AC008E4801F0C9FA00224FF480518B4801F0BE
:1002BC00C3FA01224FF40051884801F0BDFA012223
:1002CC004FF48041854801F0B7FA00224FF4004109
:1002DC00824801F0B1FA04E101224FF400717F4829
:1002EC0001F0AAFA00224FF480617C4801F0A4FAD4
:1002FC0000224FF40061794801F09EFA01224FF47C
:10030C008051764801F098FA01224FF4005173485D
:10031C0001F092FA00224FF48041704801F08CFAFF
:10032C0000224FF400416D4801F086FAD9E000221A
:10033C004FF40071694801F07FFA01224FF480619B
:10034C00664801F079FA00224FF40061634801F02D
:10035C0073FA00224FF48051604801F06DFA0122CB
:10036C004FF400515D4801F067FA00224FF48041D0
:10037C005A4801F061FA00224FF40041574801F04D
:10038C005BFAAEE000224FF40071544801F054FACD
:10039C0001224FF48061514801F04EFA00224FF4D3
:1003AC0000614E4801F048FA00224FF480514B484E
:1003BC0001F042FA00224FF40051484801F03CFA97
:1003CC0000224FF48041454801F036FA00224FF4E8
:1003DC000041424801F030FA83E000224FF40071F2
:1003EC003E4801F029FA00224FF480613B4801F0AD
:1003FC0023FA00224FF40061384801F01DFA012263
:10040C004FF48051354801F017FA01224FF4005196
:10041C00324801F011FA01224FF480412F4801F0CB
:10042C000BFA01224FF400412C4801F005FA58E078
:10043C0000224FF40071294801F0FEF900224FF41C
:10044C008061264801F0F8F900224FF4006123483E
:10045C0001F0F2F900224FF48051204801F0ECF940
:10046C0000224FF400511D4801F0E6F900224FF430
:10047C0080411A4801F0E0F900224FF4004117487E
:10048C0001F0DAF92DE000224FF40071134801F06D
:10049C00D3F900224FF48061104801F0CDF900220D
:1004AC004FF400610D4801F0C7F900224FF4805160
:1004BC000A4801F0C1F901224FF40051074801F03C
:1004CC00BBF900224FF48041044801F0B5F9002239
:1004DC004FF40041014801F0AFF902E0000801407F
:1004EC0000BF00BF0837BD4680BD00BF80B582B0DD
:1004FC0000AF78607B68092B00F2948101A252F85E
:10050C0023F000BF3905000885050008D105000857
:10051C001D06000869060008B5060008010700085A
:10052C004D07000899070008E5070008002208217C
:10053C00BF4801F081F900221021BD4801F07CF97F
:10054C0000222021BA4801F077F900224021B84856
:10055C0001F072F900228021B54801F06DF90022FA
:10056C004FF48071B24801F067F901224FF4007129
:10057C00AF4801F061F956E101220821AC4801F0C5
:10058C005BF900221021AA4801F056F90022202123
:10059C00A74801F051F901224021A54801F04CF97E
:1005AC0001228021A24801F047F901224FF4807109
:1005BC009F4801F041F901224FF400719C4801F071
:1005CC003BF930E100220821994801F035F900226D
:1005DC001021974801F030F901222021944801F0B4
:1005EC002BF900224021924801F026F900228021AB
:1005FC008F4801F021F901224FF480718C4801F0F1
:10060C001BF900224FF40071894801F015F90AE139
:10061C0000220821864801F00FF90022102184489D
:10062C0001F00AF900222021814801F005F900228D
:10063C0040217F4801F000F9012280217C4801F023
:10064C00FBF801224FF48071794801F0F5F8002293
:10065C004FF40071764801F0EFF8E4E00122082134
:10066C00734801F0E9F800221021714801F0E4F818
:10067C00002220216E4801F0DFF8012240216C4855
:10068C0001F0DAF801228021694801F0D5F8002246
:10069C004FF48071664801F0CFF800224FF40071DE
:1006AC00634801F0C9F8BEE000220821604801F05F
:1006BC00C3F8012210215E4801F0BEF8002220216F
:1006CC005B4801F0B9F800224021594801F0B4F818
:1006DC0001228021564801F0AFF800224FF48071BE
:1006EC00534801F0A9F800224FF40071504801F072
:1006FC00A3F898E0002208214D4801F09DF8012252
:10070C0010214B4801F098F800222021484801F0B4
:10071C0093F800224021464801F08EF800228021F7
:10072C00434801F089F800224FF48071404801F0F1
:10073C0083F800224FF400713D4801F07DF872E01F
:10074C00002208213A4801F077F80022102138489D
:10075C0001F072F800222021354801F06DF80122D9
:10076C004021334801F068F801228021304801F023
:10077C0063F801224FF480712D4801F05DF80122DD
:10078C004FF400712A4801F057F84CE00022082180
:10079C00274801F051F800221021254801F04CF8AF
:1007AC0000222021224801F047F800224021204855
:1007BC0001F042F8002280211D4801F03DF8002292
:1007CC004FF480711A4801F037F800224FF4007191
:1007DC00174801F031F826E000220821144801F0F6
:1007EC002BF800221021124801F026F800222021BB
:1007FC000F4801F021F8002240210D4801F01CF8AF
:10080C00012280210A4801F017F800224FF4807170
:10081C00074801F011F800224FF40071044801F070
:10082C000BF800E000BF00BF0837BD4680BD00BF1D
:10083C00000C014080B582B000AF786039607B68F5
:10084C00002B03D07B68012B17D032E000224FF431
:10085C0000611A4800F0F0FF01224FF48051174854
:10086C0000F0EAFF3B68164A82FB03129210DB177A
:10087C00D31A1846FFF764FC1BE001224FF4006109
:10088C000E4800F0D9FF00224FF480510B4800F0C5
:10089C00D3FF3A680A4B83FB02139910D317C91A7A
:1008AC000B469B000B445B00D11A0846FFF748FC33
:1008BC0000BF00BF0837BD4680BD00BF000C014023
:1008CC006766666680B582B000AF786039607B6819
:1008DC00002B03D07B68012B17D032E000224FF4A1
:1008EC0000511A4800F0A8FF01224FF4804117482C
:1008FC0000F0A2FF3B68164A82FB03129210DB1732
:10090C00D31A1846FFF7F2FD1BE001224FF40051F9
:10091C000E4800F091FF00224FF480410B4800F08C
:10092C008BFF3A680A4B83FB02139910D317C91A31
:10093C000B469B000B445B00D11A0846FFF7D6FD13
:10094C0000BF00BF0837BD4680BD00BF000C014092
:10095C006766666680B500AF064B1B6819460020BB
:10096C00FFF768FF044B1B6819460020FFF7AAFF2E
:10097C0000BF80BD500000205400002080B500AFA7
:10098C00064B1B6819460120FFF754FF044B1B68EC
:10099C0019460120FFF796FF00BF80BD50000020D4
:1009AC005400002080B500AF00F05CFC00F016F89D
:1009BC0000F09CF800F04EF8074801F081FB0A208B
:1009CC0000F00AF90A2000F035F90A2000F060F96D
:1009DC0000F052FAFCE700BF6000002080B590B038
:1009EC0000AF07F1180328220021184601F018FF68
:1009FC003B1D00221A605A609A60DA601A61022369
:100A0C00BB610123BB621023FB6200237B6307F1F4
:100A1C001803184600F028FF0346002B01D000F005
:100A2C00D5F80F237B600023BB600023FB60002301
:100A3C003B6100237B613B1D0021184601F094F9BA
:100A4C000346002B01D000F0C1F800BF4037BD4673
:100A5C0080BD000080B586B000AF07F1080300220E
:100A6C001A605A609A60DA603B4600221A605A603B
:100A7C001D4B4FF080421A601B4B41F63F725A607F
:100A8C00194B00229A60184B0922DA60164B00228F
:100A9C001A61154B00229A61134801F0C1FA034602
:100AAC00002B01D000F092F84FF48053BB6007F19B
:100ABC00080319460C4801F03FFC0346002B01D0FB
:100ACC0000F084F800233B6000237B603B46194612
:100ADC00054801F017FE0346002B01D000F076F814
:100AEC0000BF1837BD4680BD6000002080B586B0C1
:100AFC0000AF07F1080300221A605A609A60DA60AE
:100B0C00284B9B69274A43F004039361254B9B694F
:100B1C0003F004037B607B68224B9B69214A43F002
:100B2C00080393611F4B9B6903F008033B603B6810
:100B3C0000224FF63F611C4800F07EFE002247F673
:100B4C00F8311A4800F078FE4FF63F63BB60012382
:100B5C00FB6000233B6102237B6107F1080319460C
:100B6C00114800F0EFFC0723BB600023FB6000235F
:100B7C003B6107F1080319460C4800F0E3FC47F60B
:100B8C00F833BB600123FB6000233B6102237B61D4
:100B9C0007F108031946054800F0D4FC00BF1837CC
:100BAC00BD4680BD0010024000080140000C014011
:100BBC0080B582B000AF786000F022F800F04EF8FB
:100BCC0000F07AF800BF0837BD4680BD80B400AF96
:100BDC0072B600BFFEE7000080B483B000AF78604F
:100BEC00054A7B681360054B00221A6000BF0C3766
:100BFC00BD4680BC704700BF3C0000203800002080
:100C0C0080B400AF094B1B68002B0BDD074B1B6836
:100C1C00013B064A1360054B1B68002B02DC044B9E
:100C2C0001221A6000BFBD4680BC70473C0000200A
:100C3C003800002080B483B000AF7860054A7B6830
:100C4C001360054B00221A6000BF0C37BD4680BCF8
:100C5C00704700BF440000204000002080B400AF6B
:100C6C00094B1B68002B0BDD074B1B68013B064A2D
:100C7C001360054B1B68002B02DC044B01221A602D
:100C8C0000BFBD4680BC70474400002040000020DF
:100C9C0080B483B000AF7860054A7B681360054B65
:100CAC0000221A6000BF0C37BD4680BC704700BFE5
:100CBC004C0000204800002080B400AF094B1B689A
:100CCC00002B0BDD074B1B68013B064A1360054BE1
:100CDC001B68002B02DC044B01221A6000BFBD46CE
:100CEC0080BC70474C0000204800002080B485B0C8
:100CFC0000AF154B9B69144A43F001039361124BEF
:100D0C009B6903F00103BB60BB680F4BDB690E4AA8
:100D1C0043F08053D3610C4BDB6903F080537B6051
:100D2C007B680A4B5B68FB60FB6823F0E063FB604D
:100D3C00FB6843F08063FB60044AFB68536000BFB0
:100D4C001437BD4680BC70470010024000000140C3
:100D5C0080B584B000AF78607B681B68B3F1804FBE
:100D6C0013D10C4BDB690B4A43F00103D361094BE4
:100D7C00DB6903F00103FB60FB68002200211C20EF
:100D8C0000F0A9FB1C2000F0C2FB00BF1037BD46D1
:100D9C0080BD00BF0010024080B400AFFEE780B4FD
:100DAC0000AFFEE780B400AFFEE780B400AFFEE713
:100DBC0080B400AFFEE780B400AF00BFBD4680BC7E
:100DCC00704780B400AF00BFBD4680BC704780B494
:100DDC0000AF00BFBD4680BC704780B500AF00F0CF
:100DEC0087FA00BF80BD000080B500AF024801F05B
:100DFC00B3F900BF80BD00BF6000002080B400AF1D
:100E0C0000BFBD4680BC704780B584B000AFF860B1
:100E1C00B9607A603B60FB68DBB21A460121154869
:100E2C0000F00AFDBB68DBB21A460221114800F043
:100E3C0003FD7B68DBB21A4604210E4800F0FCFC73
:100E4C003B68DBB21A4608210A4800F0F5FCBB6986
:100E5C00DBB21A461021074800F0EEFCFB69DBB24E
:100E6C001A462021034800F0E7FC00BF1037BD46AE
:100E7C0080BD00BF0008014080B582B002AF9E4B20
:100E8C001B68653B042B00F2AE8101A252F823F0E3
:100E9C00B10E00081D0F0008B30F00086510000804
:100EAC00311100080023019300230093002300223A
:100EBC0000210020FFF7A8FF904B1B68012B40F08E
:100ECC0089814FF49670FFF787FE8B4B66221A6070
:100EDC008B4B1B688B4A82FB03125211DB17D31A04
:100EEC00894A1360894B1B68864A82FB0312521194
:100EFC00DB17D31A864A1360834B1B68854A136031
:100F0C00834B1B68844A13606420FFF793FE61E1F6
:100F1C0000230193012300930023002200210120D0
:100F2C00FFF772FF754B1B68012B15D1774B1B68B4
:100F3C001846FFF751FE704B67221A60774B1B68FF
:100F4C00704A82FB03125211DB17D31A704A1360DA
:100F5C006F4B1B68704A1360714B1B68012B40F080
:100F6C003B81694B1B68002B04DD674B1B68013B05
:100F7C00654A1360664B1B68002B04DD644B1B68D1
:100F8C00013B634A1360604B1B68624A1360604B01
:100F9C001B68614A1360FFF7DDFCFFF7EFFC642070
:100FAC00FFF748FE18E1012301930023009300236F
:100FBC00002200210120FFF727FF504B1B68012B5B
:100FCC0023D1564B1B681846FFF706FE4A4B682286
:100FDC001A604E4B1B684B4A82FB03125211DB17F3
:100FEC00D31A494A1360464B1B68464A82FB0312CC
:100FFC005211DB17D31A464A1360434B1B68454A00
:10100C001360434B1B68444A1360454B1B68012B10
:10101C0040F0E4803C4B1B68002B04DD3A4B1B6812
:10102C00013B394A13603A4B1B68002B04DD384BEB
:10103C001B68013B364A1360334B1B68354A1360FF
:10104C00334B1B68344A1360FFF784FCFFF796FCA4
:10105C006420FFF7EFFDC1E0002301930023009310
:10106C000123002201210020FFF7CEFE234B1B6839
:10107C00012B19D1254B1B681846FFF7ADFD1E4BF4
:10108C0069221A60254B1B681E4A82FB03125211FF
:10109C00DB17D31A1C4A13601B4B1B681D4A1360C9
:1010AC001B4B1B681C4A13601D4B1B68012B40F02B
:1010BC009780154B1B68002B04DD134B1B68013B01
:1010CC00114A1360124B1B68002B04DD104B1B687C
:1010DC00013B0F4A13600C4B1B680E4A13600C4B00
:1010EC001B680D4A1360FFF735FCFFF747FC6420C3
:1010FC00FFF7A0FD74E000BF0400002038000020C2
:10110C00100000201F85EB51580000200800002023
:10111C005C00002050000020540000200C00002037
:10112C00400000200023019300230093012301229F
:10113C0000210020FFF768FE2C4B1B68012B23D1EC
:10114C002B4B1B681846FFF747FD2A4B66221A608B
:10115C00294B1B68294A82FB03125211DB17D31A45
:10116C00274A1360274B1B68244A82FB0312521137
:10117C00DB17D31A244A1360214B1B68234A1360D4
:10118C00214B1B68224A1360224B1B68012B29D16F
:10119C001B4B1B68002B04DD194B1B68013B184AC9
:1011AC001360194B1B68002B04DD174B1B68013BAC
:1011BC00154A1360124B1B68144A1360124B1B68C0
:1011CC00134A1360FFF7C6FBFFF7D8FB6420FFF749
:1011DC0031FD07E000BF06E000BF04E000BF02E005
:1011EC0000BF00E000BF00BFBD4680BD380000203E
:1011FC000C00002004000020100000201F85EB5183
:10120C0058000020080000205C0000205000002046
:10121C005400002040000020FFF7F0FD0B480C4963
:10122C000C4A002302E0D458C4500433C4188C4236
:10123C00F9D3094A094C002301E013600432A2429D
:10124C00FBD301F0C9FAFFF7ADFB7047000000209B
:10125C001C000020802800081C000020AC0000208E
:10126C00FEE7000080B500AF084B1B68074A43F04F
:10127C0010031360032000F023F90F2000F008F88E
:10128C00FFF734FD0023184680BD00BF002002404C
:10129C0080B582B000AF7860124B1A68124B1B7885
:1012AC0019464FF47A73B3FBF1F3B2FBF3F3184620
:1012BC0000F03BF90346002B01D001230EE07B68C4
:1012CC000F2B0AD8002279684FF0FF3000F003F999
:1012DC00064A7B681360002300E001231846083798
:1012EC00BD4680BD00000020180000201400002026
:1012FC0080B400AF054B1B781A46054B1B68134492
:10130C00034A136000BFBD4680BC70471800002024
:10131C00A800002080B400AF024B1B681846BD46E5
:10132C0080BC7047A800002080B485B000AF786006
:10133C007B6803F00703FB600C4BDB68BB60BA688F
:10134C004FF6FF031340BB60FB681A02BB681343E4
:10135C0043F0BF6343F40033BB60044ABB68D36003
:10136C0000BF1437BD4680BC704700BF00ED00E0E5
:10137C0080B400AF044BDB681B0A03F0070318466C
:10138C00BD4680BC704700BF00ED00E080B483B068
:10139C0000AF0346FB7197F90730002B0BDBFB7991
:1013AC0003F01F02064997F907305B09012000FA88
:1013BC0002F241F8232000BF0C37BD4680BC7047B9
:1013CC0000E100E080B483B000AF03463960FB71EC
:1013DC0097F90730002B0ADB3B68DAB20C4997F916
:1013EC0007301201D2B20B4483F800230AE03B68A9
:1013FC00DAB20849FB7903F00F03043B1201D2B2B5
:10140C000B441A7600BF0C37BD4680BC704700BF3A
:10141C0000E100E000ED00E080B489B000AFF860BE
:10142C00B9607A60FB6803F00703FB61FB69C3F1E9
:10143C000703042B28BF0423BB61FB690433062B71
:10144C0002D9FB69033B00E000237B614FF0FF32C4
:10145C00BB6902FA03F3DA43BB681A407B699A4012
:10146C004FF0FF317B6901FA03F3D9437B680B40E2
:10147C00134318462437BD4680BC704780B582B0F4
:10148C0000AF78607B68013BB3F1807F01D301230F
:10149C000FE00A4A7B68013B53600F214FF0FF308D
:1014AC00FFF790FF054B00229A60044B07221A604D
:1014BC00002318460837BD4680BD00BF10E000E091
:1014CC0080B582B000AF78607868FFF72DFF00BF61
:1014DC000837BD4680BD80B586B000AF0346B96005
:1014EC007A60FB7300237B61FFF742FF78617A68B7
:1014FC00B9687869FFF790FF024697F90F301146EB
:10150C001846FFF75FFF00BF1837BD4680BD80B59A
:10151C0082B000AF0346FB7197F907301846FFF70E
:10152C0035FF00BF0837BD4680BD80B582B000AF27
:10153C0078607868FFF7A2FF034618460837BD4667
:10154C0080BD000080B48BB000AF786039600023A0
:10155C007B6200233B6248E101227B6A02FA03F3BF
:10156C00FB613B681B68FA691340BB61BA69FB6994
:10157C009A4240F037813B685B68A34A93425ED045
:10158C00A14A934275D8A14A934258D09F4A93429C
:10159C006FD89F4A934252D09D4A934269D89D4A34
:1015AC0093424CD09B4A934263D89B4A934246D079
:1015BC00994A93425DD8122B2AD8122B59D801A2E2
:1015CC0052F823F04B1600082516000837160008B1
:1015DC00791600087F1600087F1600087F16000891
:1015EC007F1600087F1600087F1600087F1600087B
:1015FC007F1600087F1600087F1600087F1600086B
:10160C007F1600087F1600082D16000841160008EA
:10161C00824A934213D02CE03B68DB683B6229E0A2
:10162C003B68DB6804333B6224E03B68DB680833CF
:10163C003B621FE03B68DB680C333B621AE03B68A3
:10164C009B68002B02D104233B6213E03B689B6830
:10165C00012B05D108233B627B68FA691A6109E00A
:10166C0008233B627B68FA695A6103E000233B6202
:10167C0000E000BFBB69FF2B01D87B6801E07B68F1
:10168C0004337B61BB69FF2B02D87B6A9B0002E0B1
:10169C007B6A083B9B003B617B691A680F213B69A5
:1016AC0001FA03F3DB431A40396A3B6901FA03F38D
:1016BC001A437B691A603B685B6803F08053002B0C
:1016CC0000F09080564B9B69554A43F0010393619F
:1016DC00534B9B6903F00103BB60BB68514A7B6AA7
:1016EC009B08023352F82330FB607B6A03F0030340
:1016FC009B000F2202FA03F3DB43FA681340FB60F2
:10170C007B68494A93420DD07B68484A934207D084
:10171C007B68474A934201D1022304E0032302E091
:10172C00012300E000237A6A02F003029200934046
:10173C00FA681343FB603B497B6A9B080233FA68E7
:10174C0041F823203B685B6803F48013002B06D020
:10175C00384B9A683749BB6913438B6006E0354BAD
:10176C009A68BB69DB43334913408B603B685B6809
:10177C0003F40013002B06D02E4BDA682D49BB69FD
:10178C001343CB6006E02B4BDA68BB69DB4329497A
:10179C001340CB603B685B6803F40033002B06D02E
:1017AC00244B5A682349BB6913434B6006E0214B19
:1017BC005A68BB69DB431F4913404B603B685B684D
:1017CC0003F48033002B06D01A4B1A681949BB69F5
:1017DC0013430B6006E0174B1A68BB69DB431549D2
:1017EC0013400B607B6A01337B623B681A687B6A2F
:1017FC0022FA03F3002B7FF4AFAE00BF00BF2C37EF
:10180C00BD4680BC704700BF000032100000311094
:10181C000000221000002110000012100000111016
:10182C00001002400000014000080140000C014083
:10183C00001001400004014080B483B000AF786018
:10184C000B467B8013467B707B78002B03D07A8809
:10185C007B681A6103E07B881A047B681A6100BFFD
:10186C000C37BD4680BC704780B586B000AF786041
:10187C007B68002B01D101236CE27B681B6803F0B1
:10188C000103002B00F08780924B5B6803F00C0384
:10189C00042B0CD08F4B5B6803F00C03082B12D17C
:1018AC008C4B5B6803F48033B3F5803F0BD1894BD1
:1018BC001B6803F40033002B6CD07B685B68002B37
:1018CC0068D1012346E27B685B68B3F5803F06D1A3
:1018DC00804B1B687F4A43F4803313602EE07B6897
:1018EC005B68002B0CD17B4B1B687A4A23F480334A
:1018FC001360784B1B68774A23F4802313601DE038
:10190C007B685B68B3F5A02F0CD1724B1B68714AD6
:10191C0043F4802313606F4B1B686E4A43F480338F
:10192C0013600BE06B4B1B686A4A23F48033136023
:10193C00684B1B68674A23F4802313607B685B68E1
:10194C00002B13D0FFF7E6FC386108E0FFF7E2FC50
:10195C0002463B69D31A642B01D90323FAE15D4B90
:10196C001B6803F40033002BF0D014E0FFF7D2FC1B
:10197C00386108E0FFF7CEFC02463B69D31A642BB2
:10198C0001D90323E6E1534B1B6803F40033002B0E
:10199C00F0D100E000BF7B681B6803F00203002B52
:1019AC0063D04C4B5B6803F00C03002B0BD0494B02
:1019BC005B6803F00C03082B1CD1464B5B6803F4EB
:1019CC008033002B16D1434B1B6803F00203002B12
:1019DC0005D07B681B69012B01D00123BAE13D4B7B
:1019EC001B6823F0F8027B685B69DB003949134301
:1019FC000B603AE07B681B69002B20D0364B012230
:101A0C001A60FFF787FC386108E0FFF783FC024699
:101A1C003B69D31A022B01D903239BE12D4B1B6885
:101A2C0003F00203002BF0D02A4B1B6823F0F802C2
:101A3C007B685B69DB00274913430B6015E0264B81
:101A4C0000221A60FFF766FC386108E0FFF762FCC1
:101A5C0002463B69D31A022B01D903237AE11D4BB1
:101A6C001B6803F00203002BF0D17B681B6803F0AA
:101A7C000803002B3AD07B689B69002B19D0174BBD
:101A8C0001221A60FFF746FC386108E0FFF742FCC0
:101A9C0002463B69D31A022B01D903235AE10D4BA1
:101AAC005B6A03F00203002BF0D0012000F09AFADD
:101ABC001CE00A4B00221A60FFF72CFC38610FE087
:101ACC00FFF728FC02463B69D31A022B08D90323E3
:101ADC0040E100BF0010024000004242800442423C
:101AEC009E4B5B6A03F00203002BE9D17B681B68F9
:101AFC0003F00403002B00F0A6800023FB75974B2A
:101B0C00DB6903F08053002B0DD1944BDB69934AB6
:101B1C0043F08053D361914BDB6903F08053BB607E
:101B2C00BB680123FB758E4B1B6803F48073002B81
:101B3C0018D18B4B1B688A4A43F480731360FFF7F0
:101B4C00E9FB386108E0FFF7E5FB02463B69D31A75
:101B5C00642B01D90323FDE0814B1B6803F48073D4
:101B6C00002BF0D07B68DB68012B06D17B4B1B6A0A
:101B7C007A4A43F0010313622DE07B68DB68002B8B
:101B8C000CD1764B1B6A754A23F001031362734B1D
:101B9C001B6A724A23F0040313621CE07B68DB6847
:101BAC00052B0CD16D4B1B6A6C4A43F0040313627A
:101BBC006A4B1B6A694A43F0010313620BE0674BE3
:101BCC001B6A664A23F001031362644B1B6A634A67
:101BDC0023F0040313627B68DB68002B15D0FFF73E
:101BEC0099FB38610AE0FFF795FB02463B69D31A73
:101BFC0041F28832934201D90323ABE0574B1B6A65
:101C0C0003F00203002BEED014E0FFF783FB3861E6
:101C1C000AE0FFF77FFB02463B69D31A41F2883298
:101C2C00934201D9032395E04C4B1B6A03F002034A
:101C3C00002BEED1FB7D012B05D1484BDB69474ACC
:101C4C0023F08053D3617B68DB69002B00F081802B
:101C5C00424B5B6803F00C03082B61D07B68DB699B
:101C6C00022B46D13F4B00221A60FFF753FB386121
:101C7C0008E0FFF74FFB02463B69D31A022B01D950
:101C8C00032367E0354B1B6803F00073002BF0D186
:101C9C007B681B6AB3F5803F08D1304B5B6823F43B
:101CAC0000327B689B682D4913434B602B4B5B6860
:101CBC0023F474127B68196A7B685B6A0B432749AF
:101CCC0013434B60274B01221A60FFF723FB38614B
:101CDC0008E0FFF71FFB02463B69D31A022B01D920
:101CEC00032337E01D4B1B6803F00073002BF0D06F
:101CFC002FE01C4B00221A60FFF70CFB386108E048
:101D0C00FFF708FB02463B69D31A022B01D90323C8
:101D1C0020E0124B1B6803F00073002BF0D118E08D
:101D2C007B68DB69012B01D1012313E00B4B5B6852
:101D3C00FB60FB6803F480327B681B6A9A4206D115
:101D4C00FB6803F470127B685B6A9A4201D0012332
:101D5C0000E0002318461837BD4680BD0010024035
:101D6C00007000406000424280B584B000AF7860E3
:101D7C0039607B68002B01D10123D0E06A4B1B68D2
:101D8C0003F007033A689A4210D9674B1B6823F09B
:101D9C00070265493B6813430B60634B1B6803F0F8
:101DAC0007033A689A4201D00123B8E07B681B68AC
:101DBC0003F00203002B20D07B681B6803F00403A4
:101DCC00002B05D0594B5B68584A43F4E0635360D1
:101DDC007B681B6803F00803002B05D0534B5B6832
:101DEC00524A43F460535360504B5B6823F0F0024B
:101DFC007B689B684D4913434B607B681B6803F001
:101E0C000103002B40D07B685B68012B07D1474B4B
:101E1C001B6803F40033002B15D101237FE07B6892
:101E2C005B68022B07D1414B1B6803F00073002B3E
:101E3C0009D1012373E03D4B1B6803F00203002B17
:101E4C0001D101236BE0394B5B6823F003027B6803
:101E5C005B68364913434B60FFF75CFAF8600AE0A5
:101E6C00FFF758FA0246FB68D31A41F288329342C4
:101E7C0001D9032353E02D4B5B6803F00C027B6804
:101E8C005B689B009A42EBD1274B1B6803F007035E
:101E9C003A689A4210D2244B1B6823F0070222495D
:101EAC003B6813430B60204B1B6803F007033A6835
:101EBC009A4201D0012332E07B681B6803F00403D3
:101ECC00002B08D0194B5B6823F4E0627B68DB685D
:101EDC00164913434B607B681B6803F00803002B07
:101EEC0009D0124B5B6823F460527B681B69DB00E2
:101EFC000E4913434B6000F021F802460B4B5B6814
:101F0C001B0903F00F030A49CB5C22FA03F3094ABD
:101F1C001360094B1B681846FFF7BAF900231846E3
:101F2C001037BD4680BD00BF0020024000100240AB
:101F3C0054280008000000201400002080B487B052
:101F4C0000AF0023FB600023BB6000237B610023F8
:101F5C007B6000233B611E4B5B68FB60FB6803F0FE
:101F6C000C03042B02D0082B03D027E0194B3B6148
:101F7C0027E0FB689B0C03F00F03174AD35C7B60D4
:101F8C00FB6803F48033002B10D0114B5B685B0CA7
:101F9C0003F00103114AD35CBB607B680D4A02FB62
:101FAC0003F2BB68B2FBF3F37B6104E07B680C4A81
:101FBC0002FB03F37B617B693B6102E0054B3B61F8
:101FCC0000BF3B6918461C37BD4680BC704700BF3C
:101FDC000010024000127A006428000874280008DF
:101FEC0000093D0080B485B000AF78600A4B1B68D7
:101FFC000A4AA2FB03235B0A7A6802FB03F3FB6029
:10200C0000BFFB685A1EFA60002BF9D100BF00BF5D
:10201C001437BD4680BC704700000020D34D6210C1
:10202C0080B582B000AF78607B68002B01D10123B2
:10203C0041E07B6893F83D30DBB2002B06D17B6826
:10204C00002283F83C207868FEF782FE7B6802222F
:10205C0083F83D207B681A687B6804331946104668
:10206C0000F056FA7B68012283F846207B68012237
:10207C0083F83E207B68012283F83F207B68012295
:10208C0083F840207B68012283F841207B68012281
:10209C0083F842207B68012283F843207B6801226D
:1020AC0083F844207B68012283F845207B68012259
:1020BC0083F83D20002318460837BD4680BD00003C
:1020CC0080B485B000AF78607B6893F83D30DBB2AC
:1020DC00012B01D0012335E07B68022283F83D20DF
:1020EC007B681B68DA687B681B6842F00102DA6067
:1020FC007B681B68164A934209D07B681B68B3F156
:10210C00804F04D07B681B68124A934211D17B68C4
:10211C001B689B6803F00703FB60FB68062B10D061
:10212C007B681B681A687B681B6842F001021A60A6
:10213C0007E07B681B681A687B681B6842F0010229
:10214C001A60002318461437BD4680BC704700BF88
:10215C00002C01400004004080B584B000AF7860D2
:10216C007B681B68DB68FB607B681B681B69BB605A
:10217C00BB6803F00203002B20D0FB6803F00203C2
:10218C00002B1BD07B681B686FF002021A617B6806
:10219C0001221A777B681B689B6903F00303002BF1
:1021AC0003D0786800F098F905E0786800F08BF9B6
:1021BC00786800F09AF97B6800221A77BB6803F004
:1021CC000403002B20D0FB6803F00403002B1BD06E
:1021DC007B681B686FF004021A617B6802221A7715
:1021EC007B681B689B6903F44073002B03D07868F1
:1021FC0000F072F905E0786800F065F9786800F095
:10220C0074F97B6800221A77BB6803F00803002B73
:10221C0020D0FB6803F00803002B1BD07B681B68E5
:10222C006FF008021A617B6804221A777B681B68BE
:10223C00DB6903F00303002B03D0786800F04CF942
:10224C0005E0786800F03FF9786800F04EF97B689B
:10225C0000221A77BB6803F01003002B20D0FB6818
:10226C0003F01003002B1BD07B681B686FF010026F
:10227C001A617B6808221A777B681B68DB6903F498
:10228C004073002B03D0786800F026F905E07868DD
:10229C0000F019F9786800F028F97B6800221A77A9
:1022AC00BB6803F00103002B0CD0FB6803F00103A7
:1022BC00002B07D07B681B686FF001021A617868ED
:1022CC00FEF776FCBB6803F08003002B0CD0FB6898
:1022DC0003F08003002B07D07B681B686FF0800233
:1022EC001A61786800F06FFABB6803F04003002BAA
:1022FC000CD0FB6803F04003002B07D07B681B68F5
:10230C006FF040021A61786800F0F8F8BB6803F0CF
:10231C002003002B0CD0FB6803F02003002B07D00C
:10232C007B681B686FF020021A61786800F042FA33
:10233C0000BF1037BD4680BD80B584B000AF78605B
:10234C0039600023FB737B6893F83C30012B01D17F
:10235C000223B4E07B68012283F83C207B680222D4
:10236C0083F83D207B681B689B68BB60BB6823F0CF
:10237C007703BB60BB6823F47F43BB607B681B683F
:10238C00BA689A603B681B68B3F5005F3ED0B3F542
:10239C00005F00F28780B3F5805F00F08680B3F5B4
:1023AC00805F7FD8702B1AD0702B7BD8602B50D0CD
:1023BC00602B77D8502B3CD0502B73D8402B58D057
:1023CC00402B6FD8302B64D0302B6BD8202B60D0A7
:1023DC00202B67D8002B5CD0102B5AD062E07B6886
:1023EC0018683B6899683B685A683B68DB6800F082
:1023FC006AF97B681B689B68BB60BB6843F077031A
:10240C00BB607B681B68BA689A604FE07B68186891
:10241C003B6899683B685A683B68DB6800F053F985
:10242C007B681B689A687B681B6842F480429A60E0
:10243C003CE07B6818683B6859683B68DB681A4667
:10244C0000F0CAF87B681B685021184600F021F98F
:10245C002CE07B6818683B6859683B68DB681A4657
:10246C0000F0E8F87B681B686021184600F011F951
:10247C001CE07B6818683B6859683B68DB681A4647
:10248C0000F0AAF87B681B684021184600F001F99F
:10249C000CE07B681A683B681B681946104600F014
:1024AC00F8F803E00123FB7300E000BF7B68012216
:1024BC0083F83D207B68002283F83C20FB7B184688
:1024CC001037BD4680BD80B483B000AF786000BFCC
:1024DC000C37BD4680BC704780B483B000AF7860C9
:1024EC0000BF0C37BD4680BC704780B483B000AFD2
:1024FC00786000BF0C37BD4680BC704780B483B099
:10250C0000AF786000BF0C37BD4680BC7047000040
:10251C0080B485B000AF786039607B681B68FB6065
:10252C007B682B4A934207D07B68B3F1804F03D072
:10253C007B68284A934208D1FB6823F07003FB6048
:10254C003B685B68FA681343FB607B68204A9342E4
:10255C0007D07B68B3F1804F03D07B681D4A934250
:10256C0008D1FB6823F44073FB603B68DB68FA68B6
:10257C001343FB60FB6823F080023B685B691343E9
:10258C00FB607B68FA681A603B689A687B68DA6261
:10259C003B681A687B689A627B680D4A934203D148
:1025AC003B681A697B681A637B6801225A617B68F5
:1025BC001B6903F00103002B05D07B681B6923F01A
:1025CC0001027B681A6100BF1437BD4680BC70479E
:1025DC00002C01400004004080B487B000AFF860CC
:1025EC00B9607A60FB681B6A7B61FB681B6A23F02D
:1025FC000102FB681A62FB689B693B613B6923F033
:10260C00F0033B617B681B013A6913433B617B69B7
:10261C0023F00A037B617A69BB6813437B61FB6817
:10262C003A699A61FB687A691A6200BF1C37BD4629
:10263C0080BC704780B487B000AFF860B9607A6036
:10264C00FB681B6A7B61FB681B6A23F01002FB684A
:10265C001A62FB689B693B613B6923F470433B61E5
:10266C007B681B033A6913433B617B6923F0A0032E
:10267C007B61BB681B017A6913437B61FB683A6918
:10268C009A61FB687A691A6200BF1C37BD4680BC30
:10269C00704780B485B000AF786039607B689B6808
:1026AC00FB60FB6823F07003FB603A68FB68134324
:1026BC0043F00703FB607B68FA689A6000BF14372D
:1026CC00BD4680BC704780B487B000AFF860B9607D
:1026DC007A603B60FB689B687B617B6923F47F437A
:1026EC007B613B681A027B681A43BB6813437A69A7
:1026FC0013437B61FB687A699A6000BF1C37BD4647
:10270C0080BC704780B485B000AF786039607B685E
:10271C0093F83C30012B01D1022341E07B6801226C
:10272C0083F83C207B68022283F83D207B681B6881
:10273C005B68FB607B681B689B68BB60FB6823F075
:10274C007003FB603B681B68FA681343FB607B6893
:10275C001B68FA685A607B681B68144A934209D05C
:10276C007B681B68B3F1804F04D07B681B68104AF0
:10277C0093420CD1BB6823F08003BB603B685B6861
:10278C00BA681343BB607B681B68BA689A607B6845
:10279C00012283F83D207B68002283F83C20002333
:1027AC0018461437BD4680BC704700BF002C014052
:1027BC000004004080B483B000AF786000BF0C37D9
:1027CC00BD4680BC704780B483B000AF786000BF5A
:1027DC000C37BD4680BC704770B500260C4D0D4CB7
:1027EC00641BA410A64209D100F022F800260A4D61
:1027FC000A4C641BA410A64205D170BD55F8043BCD
:10280C0098470136EEE755F8043B98470136F2E756
:10281C007828000878280008782800087C28000808
:10282C0003460244934200D1704703F8011BF9E7B9
:10283C00F8B500BFF8BC08BC9E467047F8B500BFA1
:08284C00F8BC08BC9E46704771
:10285400000000000000000001020304060708094C
:1028640002030405060708090A0B0C0D0E0F1010CD
:04287400010200005D
:042878003101000822
:04287C000D01000842
:1028800000127A00650000002C010000C800000062
:0C289000F4010000100000000100000036
:0400000508001225B8
:00000001FF
