:020000040800F2
:1000000000280020111800083117000837170008D1
:100010003D170008431700084917000800000000BA
:100020000000000000000000000000004F17000862
:100030005B1700080000000067170008731700082E
:1000400059180008591800085918000859180008CC
:1000500059180008591800085918000859180008BC
:1000600059180008591800085918000859180008AC
:10007000591800085918000859180008591800089C
:10008000591800085918000859180008591800088C
:10009000591800085918000859180008591800087C
:1000A000591800085918000859180008591800086C
:1000B00081170008591800080000000059180008AE
:1000C000591800080000000000000000591800083E
:1000D000000000005918000859180008000000002E
:1000E00059180008591800085918000800000000A5
:1000F0000000000000000000000000000000000000
:0C01000000000000000000005FF808F1A3
:10010C0010B5054C237833B9044B13B10448AFF345
:10011C0000800123237010BD4C0000200000000063
:10012C00582E000808B5034B1BB103490348AFF325
:10013C00008008BD0000000050000020582E000870
:10014C0080B483B000AF7860094A7B6852F82330E2
:10015C00012B06D1064A7B68002142F823100123AB
:10016C0000E0002318460C37BD4680BC704700BF2A
:10017C00B800002080B483B000AF7860044A7B687C
:10018C00012142F8231000BF0C37BD4680BC7047DC
:10019C00B800002080B582B000AF00237B608AE0FD
:1001AC00494A7B6852F8232048497B6841F8232050
:1001BC00474A7B6852F8232043497B6841F8232047
:1001CC007B68002B0AD10121424801F02BFE03462B
:1001DC0019463F4A7B6842F823101AE07B68012BD2
:1001EC000AD102213B4801F01DFE03461946384A4C
:1001FC007B6842F823100CE07B68022B09D10421A8
:10020C00344801F00FFE03461946314A7B6842F828
:10021C0023102E4A7B6852F823202B497B6851F817
:10022C0023309A4244D1284A7B6852F8232028492B
:10023C007B6851F823309A423AD1254A7B6852F8B0
:10024C00232025497B6851F823309A4216D0204A46
:10025C007B6852F8232020497B6841F823201C4AF4
:10026C007B6852F82330002B22D11C4A7B68C821B2
:10027C0042F823107868FFF77DFF19E0174A7B6876
:10028C0052F823305A1E15497B6841F82320134A33
:10029C007B6852F82330002B0AD10D4A7B6852F848
:1002AC002330002B04D10C4A7B68012142F8231027
:1002BC007B6801337B607B68022B7FF771AF00BFDB
:1002CC0000BF0837BD4680BD180000200C00002080
:1002DC0000000020000C014024000020AC00002095
:1002EC0080B500AF214B1B68012B14D1204B1B6830
:1002FC00002B04DD1E4B1B68013B1D4A13601D4B7C
:10030C001B68002B04DD1B4B1B68013B194A136057
:10031C00642001F027F9184B1B68012B22D1144BD8
:10032C001B68164A1360134B1B68154A136000F0C8
:10033C00A1FF144B1B68002B02D0012B09D012E03B
:10034C0000F098FF0F4B01221A60322001F038F9AF
:10035C0009E000F0A3FF0B4B00221A60322001F0E1
:10036C002FF900E000BF00BF80BD00BF940000204B
:10037C0070000020740000209C0000206800002009
:10038C006C0000207800002080B582B002AF002005
:10039C00FFF7D6FE0346012B06D18F4B0C221A60B9
:1003AC004FF47A7001F0B0F88B4B1B68653B042B53
:1003BC0000F20F8101A252F823F000BFDD03000808
:1003CC0043040008990400080305000859050008B7
:1003DC00002301930023009300230022002100201E
:1003EC0001F0D8F97D4B1B68012B40F0F1804FF4E4
:1003FC00967001F089F8784B66221A60784B1B686E
:10040C00784A82FB03125211DB17D31A764A136017
:10041C00764B1B68734A82FB03125211DB17D31AFB
:10042C00734A1360704B1B68724A1360704B1B68E5
:10043C00714A1360CCE00023019301230093002345
:10044C0000220021012001F0A5F9644B1B68012B4F
:10045C0019D16A4B1B68184601F056F85E4B67229F
:10046C001A60664B1B685F4A82FB03125211DB1742
:10047C00D31A5F4A13605C4B1B685E4A13605C4B7B
:10048C001B685D4A1360FFF72BFFA2E00123019369
:10049C0000230093002300220021012001F07AF9AF
:1004AC004E4B1B68012B23D1504B1B68184601F097
:1004BC002BF8494B68221A604C4B1B68494A82FB4B
:1004CC0003125211DB17D31A474A1360444B1B68B3
:1004DC00444A82FB03125211DB17D31A444A1360AD
:1004EC00414B1B68434A1360414B1B68424A1360E3
:1004FC00FFF7F6FE6DE00023019300230093012328
:10050C0000220121002001F045F9344B1B68012B1E
:10051C0019D13A4B1B68184600F0F6FF2E4B692296
:10052C001A60364B1B682F4A82FB03125211DB17E1
:10053C00D31A2D4A13602C4B1B682E4A13602C4B7C
:10054C001B682D4A1360FFF7CBFE42E00020FFF73B
:10055C00F7FD0346012B06D11F4B0C221A604FF4FA
:10056C00FA7000F0D1FF00230193002300930123C4
:10057C0001220021002001F00DF9184B1B68012B02
:10058C0023D11A4B1B68184600F0BEFF124B662293
:10059C001A60134B1B68134A82FB03125211DB17B0
:1005AC00D31A114A1360114B1B680E4A82FB0312BB
:1005BC005211DB17D31A0E4A13600B4B1B680D4AF2
:1005CC0013600B4B1B680C4A1360FFF789FE00E0AD
:1005DC0000BF00BFBD4680BD300000208C00002055
:1005EC003C0000201F85EB517000002034000020DF
:1005FC0074000020680000206C00002038000020EF
:10060C0080B584B000AF78607B68FB60164B1B68CC
:10061C00012B24D1154B1B68002B02D0012B0FD0C2
:10062C001EE0F968002000F095FDF968002000F04C
:10063C00D9FD0E4B01221A60322000F0EFFF0FE0C3
:10064C00F968012000F086FDF968012000F0CAFD70
:10065C00064B00221A60322000F0E0FF00E000BFE1
:10066C0000BF1037BD4680BDA40000207C000020D8
:10067C0080B582B002AF8B4B1B680E2B00F02C8127
:10068C000E2B00F3C8810C2B03D00D2B00F08580B2
:10069C00C1E1854B1B68002B09D1844B1B68844A34
:1006AC0082FB03125211DB17D31A7F4A136000230B
:1006BC00019300230093012300220021012001F06B
:1006CC0069F87C4B1B68012B23D1764B66221A6090
:1006DC00794B1B68184600F017FF744B1B68744A63
:1006EC0082FB03125211DB17D31A744A1360724B3C
:1006FC001B686F4A82FB03125211DB17D31A704A24
:10070C0013606E4B1B686F4A13606D4B1B686E4A0F
:10071C0013600020FFF714FD0346012B06D1614B3B
:10072C000D221A604FF47A7000F0EEFE0120FFF7F4
:10073C0007FD0346012B04D15B4B1B6801335A4A5E
:10074C001360594B1B681846FFF75AFF0220FFF73E
:10075C00F7FC0346012B40F060815C4B1A685C4B44
:10076C001B681A44504B1B689A4240F056814E4B02
:10077C001B68642202FB03F34C4A1360544B1B6846
:10078C00642202FB03F3534A1360504B1B68642230
:10079C0002FB03F3484A13603FE14C4B1B68002BF0
:1007AC0009D1454B1B68424A82FB03125211DB17DD
:1007BC00D31A464A136000230193012300930023AC
:1007CC0000220121002000F0E5FF3A4B1B68012BB1
:1007DC0023D1344B66221A60374B1B68184600F045
:1007EC0093FE324B1B68324A82FB03125211DB1709
:1007FC00D31A324A1360304B1B682D4A82FB03120A
:10080C005211DB17D31A2E4A13602C4B1B682D4A3E
:10081C0013602B4B1B682C4A13600020FFF790FCD5
:10082C000346012B06D11F4B0E221A604FF47A702F
:10083C0000F06AFE0120FFF783FC0346012B04D174
:10084C00224B1B680133214A1360204B1B6818464E
:10085C00FFF7D6FE0220FFF773FC0346012B40F096
:10086C00DE801A4B1A681A4B1B681A440E4B1B6815
:10087C009A4240F0D4800C4B1B68642202FB03F3B9
:10088C000A4A1360124B1B68642202FB03F3114AE1
:10089C0013600E4B1B68642202FB03F3064A1360C1
:1008AC00BDE000BF30000020800000203C00002094
:1008BC001F85EB518C0000203400002070000020BC
:1008CC0074000020680000206C00002088000020CC
:1008DC008400002038000020544B1B68002B09D1E9
:1008EC00534B1B68534A82FB03125211DB17D31A6A
:1008FC004E4A13600123019300230093002301222D
:10090C000021002000F046FF4B4B1B68012B23D12C
:10091C004A4B66221A604A4B1B68184600F0F4FDDD
:10092C00484B1B68434A82FB03125211DB17D31A44
:10093C00454A1360424B1B683E4A82FB031252111C
:10094C00DB17D31A414A13603F4B1B68404A1360B4
:10095C003E4B1B683F4A13600020FFF7F1FB034638
:10096C00012B23D1354B66221A60354B1B68184678
:10097C0000F0CAFD334B1B682E4A82FB0312521146
:10098C00DB17D31A304A13602D4B1B68294A82FBA4
:10099C0003125211DB17D31A2C4A13602A4B1B6813
:1009AC002B4A1360294B1B682A4A13600120FFF75E
:1009BC00C7FB0346012B04D11C4B1B6801331B4A9C
:1009CC0013601A4B1B681846FFF71AFE0220FFF73C
:1009DC00B7FB0346012B24D11F4B1A68134B1B6822
:1009EC001A441E4B1B689A421BD11C4B1B68642279
:1009FC0002FB03F3134A13600C4B1B68642202FBCB
:100A0C0003F30B4A1360144B1B68642202FB03F3C1
:100A1C000B4A136005E000BF04E000BF02E000BF1A
:100A2C0000E000BF00BFBD4680BD00BF84000020B9
:100A3C00380000201F85EB518C0000203000002076
:100A4C00340000203C0000207000002074000020C6
:100A5C00680000206C00002088000020800000202E
:100A6C0080B582B000AF78607B68092B00F2C8813A
:100A7C0001A252F823F000BFAD0A0008030B0008D6
:100A8C00590B0008AF0B0008050C00085B0C0008A4
:100A9C00B10C0008070D00085D0D0008B30D00082F
:100AAC0000224FF40071D54801F0D3F900224FF425
:100ABC008061D24801F0CDF900224FF40061CF489B
:100ACC0001F0C7F900224FF48051CC4801F0C1F974
:100ADC0000224FF40051C94801F0BBF900224FF439
:100AEC008041C64801F0B5F901224FF40041C348DA
:100AFC0001F0AFF985E101224FF40071BF4801F01C
:100B0C00A8F900224FF48061BC4801F0A2F9002240
:100B1C004FF40061B94801F09CF901224FF4805167
:100B2C00B64801F096F901224FF40051B34801F098
:100B3C0090F901224FF48041B04801F08AF901226A
:100B4C004FF40041AD4801F084F95AE100224FF412
:100B5C000071AA4801F07DF900224FF48061A7488A
:100B6C0001F077F901224FF40061A44801F071F90A
:100B7C0000224FF48051A14801F06BF900224FF490
:100B8C0000519E4801F065F901224FF480419B48C9
:100B9C0001F05FF900224FF40041984801F059F937
:100BAC002FE100224FF40071944801F052F9002219
:100BBC004FF48061914801F04CF900224FF4006130
:100BCC008E4801F046F900224FF480518B4801F019
:100BDC0040F901224FF40051884801F03AF9012202
:100BEC004FF48041854801F034F900224FF4004164
:100BFC00824801F02EF904E101224FF400717F4884
:100C0C0001F027F900224FF480617C4801F021F9B2
:100C1C0000224FF40061794801F01BF901224FF4D6
:100C2C008051764801F015F901224FF400517348B8
:100C3C0001F00FF900224FF48041704801F009F9DE
:100C4C0000224FF400416D4801F003F9D9E0002275
:100C5C004FF40071694801F0FCF801224FF48061F7
:100C6C00664801F0F6F800224FF40061634801F089
:100C7C00F0F800224FF48051604801F0EAF80122AC
:100C8C004FF400515D4801F0E4F800224FF480412C
:100C9C005A4801F0DEF800224FF40041574801F0A9
:100CAC00D8F8AEE000224FF40071544801F0D1F8AE
:100CBC0001224FF48061514801F0CBF800224FF42F
:100CCC0000614E4801F0C5F800224FF480514B48AA
:100CDC0001F0BFF800224FF40051484801F0B9F878
:100CEC0000224FF48041454801F0B3F800224FF444
:100CFC000041424801F0ADF883E000224FF400714E
:100D0C003E4801F0A6F800224FF480613B4801F008
:100D1C00A0F800224FF40061384801F09AF8012243
:100D2C004FF48051354801F094F801224FF40051F2
:100D3C00324801F08EF801224FF480412F4801F027
:100D4C0088F801224FF400412C4801F082F858E059
:100D5C0000224FF40071294801F07BF800224FF477
:100D6C008061264801F075F800224FF40061234899
:100D7C0001F06FF800224FF48051204801F069F81F
:100D8C0000224FF400511D4801F063F800224FF48B
:100D9C0080411A4801F05DF800224FF400411748D9
:100DAC0001F057F82DE000224FF40071134801F0C8
:100DBC0050F800224FF48061104801F04AF80022EC
:100DCC004FF400610D4801F044F800224FF48051BB
:100DDC000A4801F03EF801224FF40051074801F097
:100DEC0038F800224FF48041044801F032F8002218
:100DFC004FF40041014801F02CF802E000080140DA
:100E0C0000BF00BF0837BD4680BD00BF80B582B0B3
:100E1C0000AF78607B68092B00F2948101A252F834
:100E2C0023F000BF590E0008A50E0008F10E0008B3
:100E3C003D0F0008890F0008D50F0008211000088D
:100E4C006D100008B91000080511000800220821D7
:100E5C00BF4800F0FEFF00221021BD4800F0F9FF52
:100E6C0000222021BA4800F0F4FF00224021B848AB
:100E7C0000F0EFFF00228021B54800F0EAFF0022CD
:100E8C004FF48071B24800F0E4FF01224FF400717E
:100E9C00AF4800F0DEFF56E101220821AC4800F01B
:100EAC00D8FF00221021AA4800F0D3FF00222021F5
:100EBC00A74800F0CEFF01224021A54800F0C9FF51
:100ECC0001228021A24800F0C4FF01224FF480715E
:100EDC009F4800F0BEFF01224FF400719C4800F0C7
:100EEC00B8FF30E100220821994800F0B2FF00223F
:100EFC001021974800F0ADFF01222021944800F00A
:100F0C00A8FF00224021924800F0A3FF002280217C
:100F1C008F4800F09EFF01224FF480718C4800F046
:100F2C0098FF00224FF40071894800F092FF0AE10B
:100F3C0000220821864800F08CFF002210218448F2
:100F4C0000F087FF00222021814800F082FF002260
:100F5C0040217F4800F07DFF012280217C4800F079
:100F6C0078FF01224FF48071794800F072FF002263
:100F7C004FF40071764800F06CFFE4E00122082188
:100F8C00734800F066FF00221021714800F061FFE9
:100F9C00002220216E4800F05CFF012240216C48A9
:100FAC0000F057FF01228021694800F052FF002217
:100FBC004FF48071664800F04CFF00224FF4007132
:100FCC00634800F046FFBEE000220821604800F0B4
:100FDC0040FF012210215E4800F03BFF002220213F
:100FEC005B4800F036FF00224021594800F031FFE9
:100FFC0001228021564800F02CFF00224FF4807112
:10100C00534800F026FF00224FF40071504800F0C6
:10101C0020FF98E0002208214D4800F01AFF012221
:10102C0010214B4800F015FF00222021484800F009
:10103C0010FF00224021464800F00BFF00228021C7
:10104C00434800F006FF00224FF48071404800F046
:10105C0000FF00224FF400713D4800F0FAFE72E0F0
:10106C00002208213A4800F0F4FE002210213848F2
:10107C0000F0EFFE00222021354800F0EAFE0122AC
:10108C004021334800F0E5FE01228021304800F079
:10109C00E0FE01224FF480712D4800F0DAFE0122AF
:1010AC004FF400712A4800F0D4FE4CE000220821D5
:1010BC00274800F0CEFE00221021254800F0C9FE82
:1010CC0000222021224800F0C4FE002240212048AA
:1010DC0000F0BFFE002280211D4800F0BAFE002265
:1010EC004FF480711A4800F0B4FE00224FF40071E6
:1010FC00174800F0AEFE26E000220821144800F04C
:10110C00A8FE00221021124800F0A3FE002220218C
:10111C000F4800F09EFE002240210D4800F099FE81
:10112C00012280210A4800F094FE00224FF48071C5
:10113C00074800F08EFE00224FF40071044800F0C6
:10114C0088FE00E000BF00BF0837BD4680BD00BF71
:10115C00000C014080B582B000AF786039607B68CC
:10116C00002B03D07B68012B17D032E000224FF408
:10117C0000611A4800F06DFE01224FF480511748AF
:10118C0000F067FE3B68164A82FB03129210DB17D5
:10119C00D31A1846FFF764FC1BE001224FF40061E0
:1011AC000E4800F056FE00224FF480510B4800F020
:1011BC0050FE3A680A4B83FB02139910D317C91AD5
:1011CC000B469B000B445B00D11A0846FFF748FC0A
:1011DC0000BF00BF0837BD4680BD00BF000C0140FA
:1011EC006766666680B582B000AF786039607B68F0
:1011FC00002B03D07B68012B17D032E000224FF478
:10120C0000511A4800F025FE01224FF48041174886
:10121C0000F01FFE3B68164A82FB03129210DB178C
:10122C00D31A1846FFF7F2FD1BE001224FF40051D0
:10123C000E4800F00EFE00224FF480410B4800F0E7
:10124C0008FE3A680A4B83FB02139910D317C91A8C
:10125C000B469B000B445B00D11A0846FFF7D6FDEA
:10126C0000BF00BF0837BD4680BD00BF000C014069
:10127C006766666680B500AF064B1B681946002092
:10128C00FFF768FF044B1B6819460020FFF7AAFF05
:10129C0000BF80BD680000206C00002080B500AF4E
:1012AC00064B1B6819460120FFF754FF044B1B68C3
:1012BC0019460120FFF796FF00BF80BD6800002093
:1012CC006C00002080B500AF00F0C2FA00F01AF8F4
:1012DC0000F0A0F800F052F8094801F0FFF9642082
:1012EC0000F012F9642000F03DF9642000F068F978
:1012FC00642000F093F9FFF747F8FFF7B9F9FAE724
:10130C00C400002080B590B000AF07F1180328226C
:10131C000021184601F092FD3B1D00221A605A6014
:10132C009A60DA601A610223BB610123BB6210234D
:10133C00FB6200237B6307F11803184600F0A2FD43
:10134C000346002B01D000F0D9F80F237B6000235B
:10135C00BB600023FB6000233B6100237B613B1DD2
:10136C000021184601F00EF80346002B01D000F0C6
:10137C00C5F800BF4037BD4680BD000080B586B0C3
:10138C0000AF07F1080300221A605A609A60DA6015
:10139C003B4600221A605A601D4B4FF080421A6087
:1013AC001B4B41F63F725A60194B00229A60184B46
:1013BC000922DA60164B00221A61154B00229A6141
:1013CC00134801F03BF90346002B01D000F096F8CE
:1013DC004FF48053BB6007F1080319460C4801F029
:1013EC00B9FA0346002B01D000F088F800233B60CB
:1013FC0000237B603B461946054801F091FC0346EF
:10140C00002B01D000F07AF800BF1837BD4680BD24
:10141C00C400002080B586B000AF07F1080300229D
:10142C001A605A609A60DA60284B9B69274A43F02D
:10143C0004039361254B9B6903F004037B607B6879
:10144C00224B9B69214A43F0080393611F4B9B6914
:10145C0003F008033B603B6800224FF63F611C48D9
:10146C0000F0F7FC002247F6F8311A4800F0F1FCC6
:10147C004FF63F63BB600123FB6000233B610223FB
:10148C007B6107F108031946114800F051FB072353
:10149C00BB600023FB6001233B6107F10803194685
:1014AC000C4800F045FB47F6F833BB600123FB60AA
:1014BC0000233B6102237B6107F1080319460548B1
:1014CC0000F036FB00BF1837BD4680BD001002404F
:1014DC0000080140000C014080B582B000AF78607C
:1014EC0000F026F800F052F800F07EF800F0AAF8B0
:1014FC00FEF750FE00BF0837BD4680BD80B400AF7C
:10150C0072B600BFFEE7000080B483B000AF786015
:10151C00054A7B681360054B00221A6000BF0C372C
:10152C00BD4680BC704700BF900000208C0000209E
:10153C0080B400AF094B1B68002B0BDD074B1B68FD
:10154C00013B064A1360054B1B68002B02DC044B65
:10155C0001221A6000BFBD4680BC7047900000207D
:10156C008C00002080B483B000AF7860054A7B68A3
:10157C001360054B00221A6000BF0C37BD4680BCBF
:10158C00704700BF980000209400002080B400AF8A
:10159C00094B1B68002B0BDD074B1B68013B064AF4
:1015AC001360054B1B68002B02DC044B01221A60F4
:1015BC0000BFBD4680BC70479800002094000020FE
:1015CC0080B483B000AF7860054A7B681360054B2C
:1015DC0000221A6000BF0C37BD4680BC704700BFAC
:1015EC00A00000209C00002080B400AF094B1B68B9
:1015FC00002B0BDD074B1B68013B064A1360054BA8
:10160C001B68002B02DC044B01221A6000BFBD4694
:10161C0080BC7047A00000209C00002080B483B0E8
:10162C0000AF7860054A7B681360054B00221A6096
:10163C0000BF0C37BD4680BC704700BFA80000201F
:10164C00A400002080B400AF094B1B68002B0BDDFD
:10165C00074B1B68013B064A1360054B1B68002BAC
:10166C0002DC044B01221A6000BFBD4680BC7047EF
:10167C00A8000020A400002080B485B000AF154B5A
:10168C009B69144A43F001039361124B9B6903F06D
:10169C000103BB60BB680F4BDB690E4A43F0805300
:1016AC00D3610C4BDB6903F080537B607B680A4B86
:1016BC005B68FB60FB6823F0E063FB60FB6843F056
:1016CC008063FB60044AFB68536000BF1437BD465F
:1016DC0080BC7047001002400000014080B584B00F
:1016EC0000AF78607B681B68B3F1804F13D10C4B53
:1016FC00DB690B4A43F00103D361094BDB6903F04F
:10170C000103FB60FB68002200211C2000F0D9F9CA
:10171C001C2000F0F2F900BF1037BD4680BD00BFA1
:10172C000010024080B400AFFEE780B400AFFEE7CB
:10173C0080B400AFFEE780B400AFFEE780B400AF2A
:10174C00FEE780B400AF00BFBD4680BC704780B4DC
:10175C0000AF00BFBD4680BC704780B400AF00BF77
:10176C00BD4680BC704780B500AF00F0B7F800BF35
:10177C0080BD000080B500AF024800F0FBFF00BF49
:10178C0080BD00BFC400002080B400AF00BFBD46C8
:10179C0080BC704780B584B000AFF860B9607A60E7
:1017AC003B60FB68DBB21A460121154800F051FB87
:1017BC00BB68DBB21A460221114800F04AFB7B6879
:1017CC00DBB21A4604210E4800F043FB3B68DBB247
:1017DC001A4608210A4800F03CFBBB69DBB21A46EA
:1017EC001021074800F035FBFB69DBB21A462021BB
:1017FC00034800F02EFB00BF1037BD4680BD00BF74
:10180C0000080140FFF7C0FF0B480C490C4A0023AD
:10181C0002E0D458C4500433C4188C42F9D3094A9A
:10182C00094C002301E013600432A242FBD301F007
:10183C00E1FAFFF747FD7047000000204C00002044
:10184C009C2E00084C00002010010020FEE7000038
:10185C0080B500AF084B1B68074A43F010031360B8
:10186C00032000F023F90F2000F008F8FFF704FF25
:10187C000023184680BD00BF0020024080B582B016
:10188C0000AF7860124B1A68124B1B7819464FF454
:10189C007A73B3FBF1F3B2FBF3F3184600F03BF9A8
:1018AC000346002B01D001230EE07B680F2B0AD8D6
:1018BC00002279684FF0FF3000F003F9064A7B688C
:1018CC001360002300E0012318460837BD4680BD95
:1018DC0040000020480000204400002080B400AFED
:1018EC00054B1B781A46054B1B681344034A1360BF
:1018FC0000BFBD4680BC7047480000200C01002092
:10190C0080B400AF024B1B681846BD4680BC7047C4
:10191C000C01002080B485B000AF78607B6803F0C8
:10192C000703FB600C4BDB68BB60BA684FF6FF0328
:10193C001340BB60FB681A02BB68134343F0BF63E0
:10194C0043F40033BB60044ABB68D36000BF143758
:10195C00BD4680BC704700BF00ED00E080B400AF16
:10196C00044BDB681B0A03F007031846BD4680BC1A
:10197C00704700BF00ED00E080B483B000AF0346B9
:10198C00FB7197F90730002B0BDBFB7903F01F027F
:10199C00064997F907305B09012000FA02F241F879
:1019AC00232000BF0C37BD4680BC704700E100E02F
:1019BC0080B483B000AF03463960FB7197F90730F0
:1019CC00002B0ADB3B68DAB20C4997F9073012019D
:1019DC00D2B20B4483F800230AE03B68DAB2084920
:1019EC00FB7903F00F03043B1201D2B20B441A76BD
:1019FC0000BF0C37BD4680BC704700BF00E100E063
:101A0C0000ED00E080B489B000AFF860B9607A6096
:101A1C00FB6803F00703FB61FB69C3F10703042BAD
:101A2C0028BF0423BB61FB690433062B02D9FB6975
:101A3C00033B00E000237B614FF0FF32BB6902FAED
:101A4C0003F3DA43BB681A407B699A404FF0FF31CD
:101A5C007B6901FA03F3D9437B680B4013431846A7
:101A6C002437BD4680BC704780B582B000AF78602B
:101A7C007B68013BB3F1807F01D301230FE00A4A5D
:101A8C007B68013B53600F214FF0FF30FFF790FF55
:101A9C00054B00229A60044B07221A60002318465B
:101AAC000837BD4680BD00BF10E000E080B582B0B5
:101ABC0000AF78607868FFF72DFF00BF0837BD4690
:101ACC0080BD80B586B000AF0346B9607A60FB7309
:101ADC0000237B61FFF742FF78617A68B968786907
:101AEC00FFF790FF024697F90F3011461846FFF7A3
:101AFC005FFF00BF1837BD4680BD80B582B000AF18
:101B0C000346FB7197F907301846FFF735FF00BF06
:101B1C000837BD4680BD80B582B000AF786078686C
:101B2C00FFF7A2FF034618460837BD4680BD0000EC
:101B3C0080B48BB000AF7860396000237B620023E7
:101B4C003B6248E101227B6A02FA03F3FB613B68CA
:101B5C001B68FA691340BB61BA69FB699A4240F091
:101B6C0037813B685B68A34A93425ED0A14A93429B
:101B7C0075D8A14A934258D09F4A93426FD89F4A36
:101B8C00934252D09D4A934269D89D4A93424CD07D
:101B9C009B4A934263D89B4A934246D0994A9342BC
:101BAC005DD8122B2AD8122B59D801A252F823F047
:101BBC00371C0008111C0008231C0008651C0008B9
:101BCC006B1C00086B1C00086B1C00086B1C0008CD
:101BDC006B1C00086B1C00086B1C00086B1C0008BD
:101BEC006B1C00086B1C00086B1C00086B1C0008AD
:101BFC006B1C0008191C00082D1C0008824A93421B
:101C0C0013D02CE03B68DB683B6229E03B68DB6867
:101C1C0004333B6224E03B68DB6808333B621FE023
:101C2C003B68DB680C333B621AE03B689B68002B1B
:101C3C0002D104233B6213E03B689B68012B05D166
:101C4C0008233B627B68FA691A6109E008233B624E
:101C5C007B68FA695A6103E000233B6200E000BF35
:101C6C00BB69FF2B01D87B6801E07B6804337B6187
:101C7C00BB69FF2B02D87B6A9B0002E07B6A083BA6
:101C8C009B003B617B691A680F213B6901FA03F3E6
:101C9C00DB431A40396A3B6901FA03F31A437B6947
:101CAC001A603B685B6803F08053002B00F0908057
:101CBC00564B9B69554A43F001039361534B9B6907
:101CCC0003F00103BB60BB68514A7B6A9B0802337B
:101CDC0052F82330FB607B6A03F003039B000F2256
:101CEC0002FA03F3DB43FA681340FB607B68494A52
:101CFC0093420DD07B68484A934207D07B68474A91
:101D0C00934201D1022304E0032302E0012300E00B
:101D1C0000237A6A02F0030292009340FA6813439C
:101D2C00FB603B497B6A9B080233FA6841F823202D
:101D3C003B685B6803F48013002B06D0384B9A6821
:101D4C003749BB6913438B6006E0354B9A68BB6916
:101D5C00DB43334913408B603B685B6803F400132F
:101D6C00002B06D02E4BDA682D49BB691343CB6090
:101D7C0006E02B4BDA68BB69DB4329491340CB6087
:101D8C003B685B6803F40033002B06D0244B5A6885
:101D9C002349BB6913434B6006E0214B5A68BB696E
:101DAC00DB431F4913404B603B685B6803F4803393
:101DBC00002B06D01A4B1A681949BB6913430B60E8
:101DCC0006E0174B1A68BB69DB43154913400B60DF
:101DDC007B6A01337B623B681A687B6A22FA03F3E5
:101DEC00002B7FF4AFAE00BF00BF2C37BD4680BCCC
:101DFC00704700BF000032100000311000002210AC
:101E0C000000211000001210000011100010024000
:101E1C000000014000080140000C0140001001408E
:101E2C000004014080B485B000AF78600B467B8025
:101E3C007B689A687B881340002B02D00123FB73CC
:101E4C0001E00023FB73FB7B18461437BD4680BCB6
:101E5C00704780B483B000AF78600B467B8013462C
:101E6C007B707B78002B03D07A887B681A6103E047
:101E7C007B881A047B681A6100BF0C37BD4680BC96
:101E8C007047000080B586B000AF78607B68002B8F
:101E9C0001D101236CE27B681B6803F00103002B6A
:101EAC0000F08780924B5B6803F00C03042B0CD082
:101EBC008F4B5B6803F00C03082B12D18C4B5B68C7
:101ECC0003F48033B3F5803F0BD1894B1B6803F4CB
:101EDC000033002B6CD07B685B68002B68D101232E
:101EEC0046E27B685B68B3F5803F06D1804B1B688C
:101EFC007F4A43F4803313602EE07B685B68002BD1
:101F0C000CD17B4B1B687A4A23F480331360784BDB
:101F1C001B68774A23F4802313601DE07B685B68A1
:101F2C00B3F5A02F0CD1724B1B68714A43F480237C
:101F3C0013606F4B1B686E4A43F4803313600BE0E5
:101F4C006B4B1B686A4A23F480331360684B1B6825
:101F5C00674A23F4802313607B685B68002B13D0E3
:101F6C00FFF7CEFC386108E0FFF7CAFC02463B697C
:101F7C00D31A642B01D90323FAE15D4B1B6803F4DC
:101F8C000033002BF0D014E0FFF7BAFC386108E006
:101F9C00FFF7B6FC02463B69D31A642B01D9032325
:101FAC00E6E1534B1B6803F40033002BF0D100E047
:101FBC0000BF7B681B6803F00203002B63D04C4B03
:101FCC005B6803F00C03002B0BD0494B5B6803F0F0
:101FDC000C03082B1CD1464B5B6803F48033002B9D
:101FEC0016D1434B1B6803F00203002B05D07B6812
:101FFC001B69012B01D00123BAE13D4B1B6823F077
:10200C00F8027B685B69DB00394913430B603AE0EB
:10201C007B681B69002B20D0364B01221A60FFF71E
:10202C006FFC386108E0FFF76BFC02463B69D31A82
:10203C00022B01D903239BE12D4B1B6803F00203F8
:10204C00002BF0D02A4B1B6823F0F8027B685B69ED
:10205C00DB00274913430B6015E0264B00221A6066
:10206C00FFF74EFC386108E0FFF74AFC02463B697B
:10207C00D31A022B01D903237AE11D4B1B6803F001
:10208C000203002BF0D17B681B6803F00803002BC4
:10209C003AD07B689B69002B19D0174B01221A6030
:1020AC00FFF72EFC386108E0FFF72AFC02463B697B
:1020BC00D31A022B01D903235AE10D4B5B6A03F0AF
:1020CC000203002BF0D0012000F09AFA1CE00A4B1E
:1020DC0000221A60FFF714FC38610FE0FFF710FCC8
:1020EC0002463B69D31A022B08D9032340E100BFF7
:1020FC000010024000004242800442429E4B5B6A48
:10210C0003F00203002BE9D17B681B6803F0040386
:10211C00002B00F0A6800023FB75974BDB6903F0C6
:10212C008053002B0DD1944BDB69934A43F08053C1
:10213C00D361914BDB6903F08053BB60BB68012317
:10214C00FB758E4B1B6803F48073002B18D18B4BE3
:10215C001B688A4A43F480731360FFF7D1FB386124
:10216C0008E0FFF7CDFB02463B69D31A642B01D97B
:10217C000323FDE0814B1B6803F48073002BF0D02C
:10218C007B68DB68012B06D17B4B1B6A7A4A43F0D8
:10219C00010313622DE07B68DB68002B0CD1764BBE
:1021AC001B6A754A23F001031362734B1B6A724A54
:1021BC0023F0040313621CE07B68DB68052B0CD155
:1021CC006D4B1B6A6C4A43F0040313626A4B1B6A27
:1021DC00694A43F0010313620BE0674B1B6A664AC2
:1021EC0023F001031362644B1B6A634A23F004035C
:1021FC0013627B68DB68002B15D0FFF781FB38611D
:10220C000AE0FFF77DFB02463B69D31A41F28832A4
:10221C00934201D90323ABE0574B1B6A03F0020333
:10222C00002BEED014E0FFF76BFB38610AE0FFF7F0
:10223C0067FB02463B69D31A41F28832934201D9BB
:10224C00032395E04C4B1B6A03F00203002BEED1E9
:10225C00FB7D012B05D1484BDB69474A23F08053AA
:10226C00D3617B68DB69002B00F08180424B5B689B
:10227C0003F00C03082B61D07B68DB69022B46D181
:10228C003F4B00221A60FFF73BFB386108E0FFF779
:10229C0037FB02463B69D31A022B01D9032367E0B3
:1022AC00354B1B6803F00073002BF0D17B681B6A65
:1022BC00B3F5803F08D1304B5B6823F400327B6868
:1022CC009B682D4913434B602B4B5B6823F47412B2
:1022DC007B68196A7B685B6A0B43274913434B6025
:1022EC00274B01221A60FFF70BFB386108E0FFF760
:1022FC0007FB02463B69D31A022B01D9032337E0B3
:10230C001D4B1B6803F00073002BF0D02FE01C4B0F
:10231C0000221A60FFF7F4FA386108E0FFF7F0FAD0
:10232C0002463B69D31A022B01D9032320E0124B3E
:10233C001B6803F00073002BF0D118E07B68DB699D
:10234C00012B01D1012313E00B4B5B68FB60FB6895
:10235C0003F480327B681B6A9A4206D1FB6803F453
:10236C0070127B685B6A9A4201D0012300E0002363
:10237C0018461837BD4680BD001002400070004062
:10238C006000424280B584B000AF786039607B68F1
:10239C00002B01D10123D0E06A4B1B6803F007032B
:1023AC003A689A4210D9674B1B6823F007026549BB
:1023BC003B6813430B60634B1B6803F007033A68DD
:1023CC009A4201D00123B8E07B681B6803F002033A
:1023DC00002B20D07B681B6803F00403002B05D076
:1023EC00594B5B68584A43F4E06353607B681B6845
:1023FC0003F00803002B05D0534B5B68524A43F49F
:10240C0060535360504B5B6823F0F0027B689B6811
:10241C004D4913434B607B681B6803F00103002B91
:10242C0040D07B685B68012B07D1474B1B6803F4DA
:10243C000033002B15D101237FE07B685B68022BF6
:10244C0007D1414B1B6803F00073002B09D101230A
:10245C0073E03D4B1B6803F00203002B01D10123F9
:10246C006BE0394B5B6823F003027B685B68364991
:10247C0013434B60FFF744FAF8600AE0FFF740FAA9
:10248C000246FB68D31A41F28832934201D90323E6
:10249C0053E02D4B5B6803F00C027B685B689B0080
:1024AC009A42EBD1274B1B6803F007033A689A4218
:1024BC0010D2244B1B6823F0070222493B681343BC
:1024CC000B60204B1B6803F007033A689A4201D05B
:1024DC00012332E07B681B6803F00403002B08D057
:1024EC00194B5B6823F4E0627B68DB681649134385
:1024FC004B607B681B6803F00803002B09D0124B60
:10250C005B6823F460527B681B69DB000E49134344
:10251C004B6000F021F802460B4B5B681B0903F083
:10252C000F030A49CB5C22FA03F3094A1360094BE7
:10253C001B681846FFF7A2F9002318461037BD4652
:10254C0080BD00BF0020024000100240702E000829
:10255C00400000204400002080B487B000AF00236E
:10256C00FB600023BB6000237B6100237B600023A6
:10257C003B611E4B5B68FB60FB6803F00C03042B98
:10258C0002D0082B03D027E0194B3B6127E0FB68F6
:10259C009B0C03F00F03174AD35C7B60FB6803F4BE
:1025AC008033002B10D0114B5B685B0C03F00103E4
:1025BC00114AD35CBB607B680D4A02FB03F2BB681B
:1025CC00B2FBF3F37B6104E07B680C4A02FB03F380
:1025DC007B617B693B6102E0054B3B6100BF3B6962
:1025EC0018461C37BD4680BC704700BF0010024027
:1025FC0000127A00802E0008902E000800093D0081
:10260C0080B485B000AF78600A4B1B680A4AA2FB05
:10261C0003235B0A7A6802FB03F3FB6000BFFB68D1
:10262C005A1EFA60002BF9D100BF00BF1437BD460B
:10263C0080BC704740000020D34D621080B582B042
:10264C0000AF78607B68002B01D1012341E07B68EF
:10265C0093F83D30DBB2002B06D17B68002283F867
:10266C003C207868FFF73AF87B68022283F83D201B
:10267C007B681A687B6804331946104600F056FADA
:10268C007B68012283F846207B68012283F83E2078
:10269C007B68012283F83F207B68012283F840206D
:1026AC007B68012283F841207B68012283F8422059
:1026BC007B68012283F843207B68012283F8442045
:1026CC007B68012283F845207B68012283F83D203A
:1026DC00002318460837BD4680BD000080B485B085
:1026EC0000AF78607B6893F83D30DBB2012B01D0F2
:1026FC00012335E07B68022283F83D207B681B6850
:10270C00DA687B681B6842F00102DA607B681B6840
:10271C00164A934209D07B681B68B3F1804F04D0F2
:10272C007B681B68124A934211D17B681B689B68BB
:10273C0003F00703FB60FB68062B10D07B681B685B
:10274C001A687B681B6842F001021A6007E07B681C
:10275C001B681A687B681B6842F001021A60002330
:10276C0018461437BD4680BC704700BF002C014092
:10277C000004004080B584B000AF78607B681B68B3
:10278C00DB68FB607B681B681B69BB60BB6803F084
:10279C000203002B20D0FB6803F00203002B1BD09C
:1027AC007B681B686FF002021A617B6801221A7742
:1027BC007B681B689B6903F00303002B03D07868CC
:1027CC0000F098F905E0786800F08BF9786800F073
:1027DC009AF97B6800221A77BB6803F00403002B7C
:1027EC0020D0FB6803F00403002B1BD07B681B6814
:1027FC006FF004021A617B6802221A777B681B68EF
:10280C009B6903F44073002B03D0786800F072F9D5
:10281C0005E0786800F065F9786800F074F97B6879
:10282C0000221A77BB6803F00803002B20D0FB684A
:10283C0003F00803002B1BD07B681B686FF00802A9
:10284C001A617B6804221A777B681B68DB6903F0CA
:10285C000303002B03D0786800F04CF905E078688E
:10286C0000F03FF9786800F04EF97B6800221A7787
:10287C00BB6803F01003002B20D0FB6803F010039F
:10288C00002B1BD07B681B686FF010021A617B68F1
:10289C0008221A777B681B68DB6903F44073002BF2
:1028AC0003D0786800F026F905E0786800F019F993
:1028BC00786800F028F97B6800221A77BB6803F06F
:1028CC000103002B0CD0FB6803F00103002B07D095
:1028DC007B681B686FF001021A617868FEF7FCFDDB
:1028EC00BB6803F08003002B0CD0FB6803F0800363
:1028FC00002B07D07B681B686FF080021A61786828
:10290C0000F06FFABB6803F04003002B0CD0FB689F
:10291C0003F04003002B07D07B681B686FF040026C
:10292C001A61786800F0F8F8BB6803F02003002BFC
:10293C000CD0FB6803F02003002B07D07B681B68CE
:10294C006FF020021A61786800F042FA00BF10376D
:10295C00BD4680BD80B584B000AF7860396000237F
:10296C00FB737B6893F83C30012B01D10223B4E05C
:10297C007B68012283F83C207B68022283F83D208F
:10298C007B681B689B68BB60BB6823F07703BB60EC
:10299C00BB6823F47F43BB607B681B68BA689A6092
:1029AC003B681B68B3F5005F3ED0B3F5005F00F2E7
:1029BC008780B3F5805F00F08680B3F5805F7FD8A9
:1029CC00702B1AD0702B7BD8602B50D0602B77D803
:1029DC00502B3CD0502B73D8402B58D0402B6FD859
:1029EC00302B64D0302B6BD8202B60D0202B67D8A9
:1029FC00002B5CD0102B5AD062E07B6818683B68C7
:102A0C0099683B685A683B68DB6800F06AF97B6838
:102A1C001B689B68BB60BB6843F07703BB607B683B
:102A2C001B68BA689A604FE07B6818683B689968C5
:102A3C003B685A683B68DB6800F053F97B681B689D
:102A4C009A687B681B6842F480429A603CE07B6821
:102A5C0018683B6859683B68DB681A4600F0CAF88E
:102A6C007B681B685021184600F021F92CE07B682C
:102A7C0018683B6859683B68DB681A4600F0E8F850
:102A8C007B681B686021184600F011F91CE07B681C
:102A9C0018683B6859683B68DB681A4600F0AAF86E
:102AAC007B681B684021184600F001F90CE07B683C
:102ABC001A683B681B681946104600F0F8F803E0EA
:102ACC000123FB7300E000BF7B68012283F83D20EB
:102ADC007B68002283F83C20FB7B18461037BD46F0
:102AEC0080BD80B483B000AF786000BF0C37BD46AA
:102AFC0080BC704780B483B000AF786000BF0C37E7
:102B0C00BD4680BC704780B483B000AF786000BF16
:102B1C000C37BD4680BC704780B483B000AF786082
:102B2C0000BF0C37BD4680BC7047000080B485B038
:102B3C0000AF786039607B681B68FB607B682B4A50
:102B4C00934207D07B68B3F1804F03D07B68284A4F
:102B5C00934208D1FB6823F07003FB603B685B6811
:102B6C00FA681343FB607B68204A934207D07B686A
:102B7C00B3F1804F03D07B681D4A934208D1FB68A8
:102B8C0023F44073FB603B68DB68FA681343FB601B
:102B9C00FB6823F080023B685B691343FB607B6836
:102BAC00FA681A603B689A687B68DA623B681A6854
:102BBC007B689A627B680D4A934203D13B681A6921
:102BCC007B681A637B6801225A617B681B6903F07E
:102BDC000103002B05D07B681B6923F001027B6885
:102BEC001A6100BF1437BD4680BC7047002C0140F1
:102BFC000004004080B487B000AFF860B9607A6020
:102C0C00FB681B6A7B61FB681B6A23F00102FB6893
:102C1C001A62FB689B693B613B6923F0F0033B61E3
:102C2C007B681B013A6913433B617B6923F00A0300
:102C3C007B617A69BB6813437B61FB683A699A6173
:102C4C00FB687A691A6200BF1C37BD4680BC7047AE
:102C5C0080B487B000AFF860B9607A60FB681B6A1B
:102C6C007B61FB681B6A23F01002FB681A62FB682D
:102C7C009B693B613B6923F470433B617B681B039D
:102C8C003A6913433B617B6923F0A0037B61BB680A
:102C9C001B017A6913437B61FB683A699A61FB6893
:102CAC007A691A6200BF1C37BD4680BC704780B47D
:102CBC0085B000AF786039607B689B68FB60FB680F
:102CCC0023F07003FB603A68FB68134343F007037F
:102CDC00FB607B68FA689A6000BF1437BD4680BC05
:102CEC00704780B487B000AFF860B9607A603B6021
:102CFC00FB689B687B617B6923F47F437B613B684A
:102D0C001A027B681A43BB6813437A6913437B61CD
:102D1C00FB687A699A6000BF1C37BD4680BC70475F
:102D2C0080B485B000AF786039607B6893F83C3034
:102D3C00012B01D1022341E07B68012283F83C2066
:102D4C007B68022283F83D207B681B685B68FB6014
:102D5C007B681B689B68BB60FB6823F07003FB609F
:102D6C003B681B68FA681343FB607B681B68FA6856
:102D7C005A607B681B68144A934209D07B681B68B5
:102D8C00B3F1804F04D07B681B68104A93420CD17E
:102D9C00BB6823F08003BB603B685B68BA68134375
:102DAC00BB607B681B68BA689A607B68012283F8F9
:102DBC003D207B68002283F83C2000231846143702
:102DCC00BD4680BC704700BF002C01400004004091
:102DDC0080B483B000AF786000BF0C37BD4680BCB8
:102DEC00704780B483B000AF786000BF0C37BD462D
:102DFC0080BC704770B500260C4D0D4C641BA410A4
:102E0C00A64209D100F022F800260A4D0A4C641B98
:102E1C00A410A64205D170BD55F8043B9847013665
:102E2C00EEE755F8043B98470136F2E7942E00087C
:102E3C00942E0008942E0008982E00080346024495
:102E4C00934200D1704703F8011BF9E7F8B500BFB6
:102E5C00F8BC08BC9E467047F8B500BFF8BC08BC6F
:042E6C009E467047C7
:102E7000000000000000000001020304060708092A
:102E800002030405060708090A0B0C0D0E0F1010AB
:042E9000010200003B
:042E94003101000800
:042E98000D01000820
:102E9C000100000000000000000000000100000024
:102EAC000000000000000000010000000000000015
:102EBC000000000001000000000000000000000005
:102ECC00650000002C010000C8000000F4010000A7
:0C2EDC0000127A0010000000010000004D
:0400000508001811C6
:00000001FF
